{
  "_format": "hh-sol-artifact-1",
  "contractName": "MyFirstToken",
  "sourceName": "contracts/Token.sol",
  "abi": [
    {
      "inputs": [
        {
          "internalType": "string",
          "name": "_Entername",
          "type": "string"
        },
        {
          "internalType": "string",
          "name": "_Entersymbol",
          "type": "string"
        }
      ],
      "stateMutability": "nonpayable",
      "type": "constructor"
    },
    {
      "anonymous": false,
      "inputs": [
        {
          "indexed": true,
          "internalType": "address",
          "name": "from",
          "type": "address"
        },
        {
          "indexed": false,
          "internalType": "uint256",
          "name": "value",
          "type": "uint256"
        }
      ],
      "name": "Burn",
      "type": "event"
    },
    {
      "anonymous": false,
      "inputs": [
        {
          "indexed": true,
          "internalType": "address",
          "name": "to",
          "type": "address"
        },
        {
          "indexed": false,
          "internalType": "uint256",
          "name": "value",
          "type": "uint256"
        }
      ],
      "name": "Mint",
      "type": "event"
    },
    {
      "anonymous": false,
      "inputs": [
        {
          "indexed": true,
          "internalType": "address",
          "name": "from",
          "type": "address"
        },
        {
          "indexed": true,
          "internalType": "address",
          "name": "to",
          "type": "address"
        },
        {
          "indexed": false,
          "internalType": "uint256",
          "name": "value",
          "type": "uint256"
        }
      ],
      "name": "Transfer",
      "type": "event"
    },
    {
      "inputs": [],
      "name": "Token_name",
      "outputs": [
        {
          "internalType": "string",
          "name": "",
          "type": "string"
        }
      ],
      "stateMutability": "view",
      "type": "function"
    },
    {
      "inputs": [],
      "name": "Token_owner",
      "outputs": [
        {
          "internalType": "address",
          "name": "",
          "type": "address"
        }
      ],
      "stateMutability": "view",
      "type": "function"
    },
    {
      "inputs": [],
      "name": "Token_symbol",
      "outputs": [
        {
          "internalType": "string",
          "name": "",
          "type": "string"
        }
      ],
      "stateMutability": "view",
      "type": "function"
    },
    {
      "inputs": [],
      "name": "TotalSupply",
      "outputs": [
        {
          "internalType": "uint256",
          "name": "",
          "type": "uint256"
        }
      ],
      "stateMutability": "view",
      "type": "function"
    },
    {
      "inputs": [
        {
          "internalType": "address",
          "name": "",
          "type": "address"
        }
      ],
      "name": "balanceOf",
      "outputs": [
        {
          "internalType": "uint256",
          "name": "",
          "type": "uint256"
        }
      ],
      "stateMutability": "view",
      "type": "function"
    },
    {
      "inputs": [
        {
          "internalType": "uint256",
          "name": "value",
          "type": "uint256"
        }
      ],
      "name": "burn",
      "outputs": [],
      "stateMutability": "nonpayable",
      "type": "function"
    },
    {
      "inputs": [
        {
          "internalType": "address",
          "name": "to",
          "type": "address"
        },
        {
          "internalType": "uint256",
          "name": "value",
          "type": "uint256"
        }
      ],
      "name": "mint",
      "outputs": [],
      "stateMutability": "nonpayable",
      "type": "function"
    },
    {
      "inputs": [
        {
          "internalType": "address",
          "name": "to",
          "type": "address"
        },
        {
          "internalType": "uint256",
          "name": "value",
          "type": "uint256"
        }
      ],
      "name": "transfer",
      "outputs": [
        {
          "internalType": "bool",
          "name": "",
          "type": "bool"
        }
      ],
      "stateMutability": "nonpayable",
      "type": "function"
    }
  ],
  "bytecode": "0x60806040523480156200001157600080fd5b50604051620014d6380380620014d683398181016040528101906200003791906200023f565b81600090816200004891906200050f565b5080600190816200005a91906200050f565b50600060028190555033600460006101000a81548173ffffffffffffffffffffffffffffffffffffffff021916908373ffffffffffffffffffffffffffffffffffffffff1602179055505050620005f6565b6000604051905090565b600080fd5b600080fd5b600080fd5b600080fd5b6000601f19601f8301169050919050565b7f4e487b7100000000000000000000000000000000000000000000000000000000600052604160045260246000fd5b6200011582620000ca565b810181811067ffffffffffffffff82111715620001375762000136620000db565b5b80604052505050565b60006200014c620000ac565b90506200015a82826200010a565b919050565b600067ffffffffffffffff8211156200017d576200017c620000db565b5b6200018882620000ca565b9050602081019050919050565b60005b83811015620001b557808201518184015260208101905062000198565b60008484015250505050565b6000620001d8620001d2846200015f565b62000140565b905082815260208101848484011115620001f757620001f6620000c5565b5b6200020484828562000195565b509392505050565b600082601f830112620002245762000223620000c0565b5b815162000236848260208601620001c1565b91505092915050565b60008060408385031215620002595762000258620000b6565b5b600083015167ffffffffffffffff8111156200027a5762000279620000bb565b5b62000288858286016200020c565b925050602083015167ffffffffffffffff811115620002ac57620002ab620000bb565b5b620002ba858286016200020c565b9150509250929050565b600081519050919050565b7f4e487b7100000000000000000000000000000000000000000000000000000000600052602260045260246000fd5b600060028204905060018216806200031757607f821691505b6020821081036200032d576200032c620002cf565b5b50919050565b60008190508160005260206000209050919050565b60006020601f8301049050919050565b600082821b905092915050565b600060088302620003977fffffffffffffffffffffffffffffffffffffffffffffffffffffffffffffffff8262000358565b620003a3868362000358565b95508019841693508086168417925050509392505050565b6000819050919050565b6000819050919050565b6000620003f0620003ea620003e484620003bb565b620003c5565b620003bb565b9050919050565b6000819050919050565b6200040c83620003cf565b620004246200041b82620003f7565b84845462000365565b825550505050565b600090565b6200043b6200042c565b6200044881848462000401565b505050565b5b8181101562000470576200046460008262000431565b6001810190506200044e565b5050565b601f821115620004bf57620004898162000333565b620004948462000348565b81016020851015620004a4578190505b620004bc620004b38562000348565b8301826200044d565b50505b505050565b600082821c905092915050565b6000620004e460001984600802620004c4565b1980831691505092915050565b6000620004ff8383620004d1565b9150826002028217905092915050565b6200051a82620002c4565b67ffffffffffffffff811115620005365762000535620000db565b5b620005428254620002fe565b6200054f82828562000474565b600060209050601f83116001811462000587576000841562000572578287015190505b6200057e8582620004f1565b865550620005ee565b601f198416620005978662000333565b60005b82811015620005c1578489015182556001820191506020850194506020810190506200059a565b86831015620005e15784890151620005dd601f891682620004d1565b8355505b6001600288020188555050505b505050505050565b610ed080620006066000396000f3fe608060405234801561001057600080fd5b50600436106100885760003560e01c806370a082311161005b57806370a0823114610101578063a44b47f714610131578063a9059cbb1461014f578063e3fc852a1461017f57610088565b8063067b7e541461008d57806340c10f19146100ab57806342966c68146100c75780634cf19b94146100e3575b600080fd5b61009561019d565b6040516100a291906109ee565b60405180910390f35b6100c560048036038101906100c09190610aa9565b61022b565b005b6100e160048036038101906100dc9190610ae9565b610494565b005b6100eb61063c565b6040516100f891906109ee565b60405180910390f35b61011b60048036038101906101169190610b16565b6106ca565b6040516101289190610b52565b60405180910390f35b6101396106e2565b6040516101469190610b52565b60405180910390f35b61016960048036038101906101649190610aa9565b6106e8565b6040516101769190610b88565b60405180910390f35b610187610938565b6040516101949190610bb2565b60405180910390f35b600180546101aa90610bfc565b80601f01602080910402602001604051908101604052809291908181526020018280546101d690610bfc565b80156102235780601f106101f857610100808354040283529160200191610223565b820191906000526020600020905b81548152906001019060200180831161020657829003601f168201915b505050505081565b600460009054906101000a900473ffffffffffffffffffffffffffffffffffffffff1673ffffffffffffffffffffffffffffffffffffffff163373ffffffffffffffffffffffffffffffffffffffff16146102bb576040517f08c379a00000000000000000000000000000000000000000000000000000000081526004016102b290610c9f565b60405180910390fd5b600073ffffffffffffffffffffffffffffffffffffffff168273ffffffffffffffffffffffffffffffffffffffff160361032a576040517f08c379a000000000000000000000000000000000000000000000000000000000815260040161032190610d0b565b60405180910390fd5b6000811161036d576040517f08c379a000000000000000000000000000000000000000000000000000000000815260040161036490610d77565b60405180910390fd5b806002600082825461037f9190610dc6565b9250508190555080600360008473ffffffffffffffffffffffffffffffffffffffff1673ffffffffffffffffffffffffffffffffffffffff16815260200190815260200160002060008282546103d59190610dc6565b925050819055508173ffffffffffffffffffffffffffffffffffffffff167f0f6798a560793a54c3bcfe86a93cde1e73087d944c0ea20544137d4121396885826040516104229190610b52565b60405180910390a28173ffffffffffffffffffffffffffffffffffffffff16600073ffffffffffffffffffffffffffffffffffffffff167fddf252ad1be2c89b69c2b068fc378daa952ba7f163c4a11628f55a4df523b3ef836040516104889190610b52565b60405180910390a35050565b80600360003373ffffffffffffffffffffffffffffffffffffffff1673ffffffffffffffffffffffffffffffffffffffff168152602001908152602001600020541015610516576040517f08c379a000000000000000000000000000000000000000000000000000000000815260040161050d90610e46565b60405180910390fd5b80600260008282546105289190610e66565b9250508190555080600360003373ffffffffffffffffffffffffffffffffffffffff1673ffffffffffffffffffffffffffffffffffffffff168152602001908152602001600020600082825461057e9190610e66565b925050819055503373ffffffffffffffffffffffffffffffffffffffff167fcc16f5dbb4873280815c1ee09dbd06736cffcc184412cf7a71a0fdb75d397ca5826040516105cb9190610b52565b60405180910390a2600073ffffffffffffffffffffffffffffffffffffffff163373ffffffffffffffffffffffffffffffffffffffff167fddf252ad1be2c89b69c2b068fc378daa952ba7f163c4a11628f55a4df523b3ef836040516106319190610b52565b60405180910390a350565b6000805461064990610bfc565b80601f016020809104026020016040519081016040528092919081815260200182805461067590610bfc565b80156106c25780601f10610697576101008083540402835291602001916106c2565b820191906000526020600020905b8154815290600101906020018083116106a557829003601f168201915b505050505081565b60036020528060005260406000206000915090505481565b60025481565b60008073ffffffffffffffffffffffffffffffffffffffff168373ffffffffffffffffffffffffffffffffffffffff1603610758576040517f08c379a000000000000000000000000000000000000000000000000000000000815260040161074f90610d0b565b60405180910390fd5b6000821161079b576040517f08c379a000000000000000000000000000000000000000000000000000000000815260040161079290610d77565b60405180910390fd5b81600360003373ffffffffffffffffffffffffffffffffffffffff1673ffffffffffffffffffffffffffffffffffffffff16815260200190815260200160002054101561081d576040517f08c379a000000000000000000000000000000000000000000000000000000000815260040161081490610e46565b60405180910390fd5b81600360003373ffffffffffffffffffffffffffffffffffffffff1673ffffffffffffffffffffffffffffffffffffffff168152602001908152602001600020600082825461086c9190610e66565b9250508190555081600360008573ffffffffffffffffffffffffffffffffffffffff1673ffffffffffffffffffffffffffffffffffffffff16815260200190815260200160002060008282546108c29190610dc6565b925050819055508273ffffffffffffffffffffffffffffffffffffffff163373ffffffffffffffffffffffffffffffffffffffff167fddf252ad1be2c89b69c2b068fc378daa952ba7f163c4a11628f55a4df523b3ef846040516109269190610b52565b60405180910390a36001905092915050565b600460009054906101000a900473ffffffffffffffffffffffffffffffffffffffff1681565b600081519050919050565b600082825260208201905092915050565b60005b8381101561099857808201518184015260208101905061097d565b60008484015250505050565b6000601f19601f8301169050919050565b60006109c08261095e565b6109ca8185610969565b93506109da81856020860161097a565b6109e3816109a4565b840191505092915050565b60006020820190508181036000830152610a0881846109b5565b905092915050565b600080fd5b600073ffffffffffffffffffffffffffffffffffffffff82169050919050565b6000610a4082610a15565b9050919050565b610a5081610a35565b8114610a5b57600080fd5b50565b600081359050610a6d81610a47565b92915050565b6000819050919050565b610a8681610a73565b8114610a9157600080fd5b50565b600081359050610aa381610a7d565b92915050565b60008060408385031215610ac057610abf610a10565b5b6000610ace85828601610a5e565b9250506020610adf85828601610a94565b9150509250929050565b600060208284031215610aff57610afe610a10565b5b6000610b0d84828501610a94565b91505092915050565b600060208284031215610b2c57610b2b610a10565b5b6000610b3a84828501610a5e565b91505092915050565b610b4c81610a73565b82525050565b6000602082019050610b676000830184610b43565b92915050565b60008115159050919050565b610b8281610b6d565b82525050565b6000602082019050610b9d6000830184610b79565b92915050565b610bac81610a35565b82525050565b6000602082019050610bc76000830184610ba3565b92915050565b7f4e487b7100000000000000000000000000000000000000000000000000000000600052602260045260246000fd5b60006002820490506001821680610c1457607f821691505b602082108103610c2757610c26610bcd565b5b50919050565b7f4f6e6c792074686520636f6e7472616374206f776e65722063616e2063616c6c60008201527f20746869732066756e6374696f6e000000000000000000000000000000000000602082015250565b6000610c89602e83610969565b9150610c9482610c2d565b604082019050919050565b60006020820190508181036000830152610cb881610c7c565b9050919050565b7f496e76616c696420726563697069656e74206164647265737300000000000000600082015250565b6000610cf5601983610969565b9150610d0082610cbf565b602082019050919050565b60006020820190508181036000830152610d2481610ce8565b9050919050565b7f496e76616c696420616d6f756e74000000000000000000000000000000000000600082015250565b6000610d61600e83610969565b9150610d6c82610d2b565b602082019050919050565b60006020820190508181036000830152610d9081610d54565b9050919050565b7f4e487b7100000000000000000000000000000000000000000000000000000000600052601160045260246000fd5b6000610dd182610a73565b9150610ddc83610a73565b9250828201905080821115610df457610df3610d97565b5b92915050565b7f496e73756666696369656e742062616c616e6365000000000000000000000000600082015250565b6000610e30601483610969565b9150610e3b82610dfa565b602082019050919050565b60006020820190508181036000830152610e5f81610e23565b9050919050565b6000610e7182610a73565b9150610e7c83610a73565b9250828203905081811115610e9457610e93610d97565b5b9291505056fea2646970667358221220b091203d439e541227a7ca3cdf8ebf3adf5b90b7cfa87583df117d3552497b8964736f6c63430008130033",
  "linkReferences": {},
  "deployedLinkReferences": {}
}